:02000004085F93
:1090000000905F08FCFF5F080000060023000501D8
:0890100004019E18000000009D
:109018001348144908B5884205D0134A824202D041
:10902800124B121A98471248124A0021124B121A70
:10903800984712481249884205D0124A824202D003
:109048000A4B121A984710481049884205D0104A0E
:10905800824202D0054B121A9847014808BD00BF4A
:10906800F8AD071068FA5F086CAE07102D0D1110E7
:109078006CAE0710FCAF0710A10E111038963F0216
:10908800A8905F0840963F0240963F02B0905F0864
:0C909800F8FF3F0219905F080000000084
:0890A8009C905F0840F53F02B7
:1090B00081F0004102E000BF83F0004330B54FEA89
:1090C00041044FEA430594EA050F08BF90EA020FF6
:1090D0001FBF54EA000C55EA020C7FEA645C7FEA89
:1090E000655C00F0E2804FEA5454D4EB5555B8BFAC
:1090F0006D420CDD2C4480EA020281EA030382EA1D
:10910000000083EA010180EA020281EA0303362DAE
:1091100088BF30BD11F0004F4FEA01314FF4801C81
:109120004CEA113102D0404261EB410113F0004F93
:109130004FEA03334CEA133302D0524263EB43034A
:1091400094EA050F00F0A780A4F10104D5F1200EE8
:109150000DDB02FA0EFC22FA05F2801841F1000143
:1091600003FA0EF2801843FA05F359410EE0A5F117
:1091700020050EF1200E012A03FA0EFC28BF4CF048
:10918000020C43FA05F3C01851EBE37101F00045FE
:1091900007D54FF0000EDCF1000C7EEB00006EEB0B
:1091A0000101B1F5801F1BD3B1F5001F0CD3490895
:1091B0005FEA30004FEA3C0C04F101044FEA4452EC
:1091C00012F5800F80F09A80BCF1004F08BF5FEA73
:1091D000500C50F1000041EB045141EA050130BD53
:1091E0005FEA4C0C404141EB0101013C28BFB1F565
:1091F000801FE9D291F0000F04BF01460020B1FAB0
:1092000081F308BF2033A3F10B03B3F120020CDA82
:109210000C3208DD02F1140CC2F10C0201FA0CF060
:1092200021FA02F10CE002F11402D8BFC2F1200CC5
:1092300001FA02F120FA0CFCDCBF41EA0C0190407B
:10924000E41AA2BF01EB0451294330BD6FEA0404C4
:109250001F3C1CDA0C340EDC04F11404C4F12002AF
:1092600020FA04F001FA02F340EA030021FA04F3C1
:1092700045EA030130BDC4F10C04C4F1200220FA18
:1092800002F001FA04F340EA0300294630BD21FA56
:1092900004F0294630BD94F0000F83F4801306BF1C
:1092A00081F480110134013D4EE77FEA645C18BF10
:1092B0007FEA655C29D094EA050F08BF90EA020FA7
:1092C00005D054EA000C04BF1946104630BD91EA9F
:1092D000030F1EBF0021002030BD5FEA545C05D1A2
:1092E0004000494128BF41F0004130BD14F58004E1
:1092F0003CBF01F5801130BD01F0004545F0FE4155
:1093000041F470014FF0000030BD7FEA645C1ABF89
:10931000194610467FEA655C1CBF0B46024650EAC0
:10932000013406BF52EA033591EA030F41F40021EC
:1093300030BD00BF90F0000F04BF0021704730B572
:109340004FF4806404F132044FF000054FF0000147
:1093500050E700BF90F0000F04BF0021704730B508
:109360004FF4806404F1320410F0004548BF4042DD
:109370004FF000013EE700BF42004FEAE2014FEA32
:1093800031014FEA02701FBF12F07F4393F07F4F0D
:1093900081F06051704732F07F4208BF704793F010
:1093A0007F4F04BF41F40021704730B54FF4607423
:1093B00001F0004521F000411CE700BF50EA010226
:1093C00008BF704730B54FF000050AE050EA0102CF
:1093D00008BF704730B511F0004502D5404261EB3F
:1093E00041014FF4806404F132045FEA915C3FF480
:1093F000D8AE4FF003025FEADC0C18BF03325FEA1D
:10940000DC0C18BF033202EBDC02C2F1200300FACD
:1094100003FC20FA02F001FA03FE40EA0E0021FAF2
:1094200002F11444BDE600BF4FF0FF3C06E000BF70
:109430004FF0010C02E000BF4FF0010C4DF804CDDD
:109440004FEA410C7FEA6C5C4FEA430C18BF7FEA9D
:109450006C5C1BD001B050EA410C0CBF52EA430CCB
:1094600091EA030F02BF90EA020F0020704710F14B
:10947000000F91EA030F58BF994208BF90422CBFDA
:10948000D8176FEAE37040F0010070474FEA410CD3
:109490007FEA6C5C02D150EA013C07D14FEA430CF1
:1094A0007FEA6C5CD6D152EA033CD3D05DF8040B62
:1094B000704700BF8446104662468C461946634694
:1094C00000E000BF01B5FFF7B7FF002848BF10F16B
:1094D000000F01BD4DF808EDFFF7F4FF0CBF0120B0
:1094E00000205DF808FB00BF4DF808EDFFF7EAFF2C
:1094F00034BF012000205DF808FB00BF4DF808EDE7
:10950000FFF7E0FF94BF012000205DF808FB00BFDB
:109510004DF808EDFFF7CEFF94BF012000205DF865
:1095200008FB00BF4DF808EDFFF7C4FF34BF012072
:1095300000205DF808FB00BF4FEA410C7FEA6C5C3D
:1095400002D150EA013C0AD14FEA430C7FEA6C5C3D
:1095500002D152EA033C02D14FF0000070474FF0B5
:10956000010070474FEA4102B2F1E04324BFB3F576
:10957000001CDCF1FE5C0DD901F0004C4FEAC0028A
:109580004CEA5070B2F1004F40EB830008BF20F06E
:109590000100704711F0804F21D113F13872BCBF28
:1095A00001F00040704741F480114FEA5252C2F17D
:1095B0001802C2F1200C10FA0CF320FA02F018BFC6
:1095C00040F001004FEAC1234FEAD32303FA0CFC19
:1095D00040EA0C0023FA02F34FEA4303CCE77FEAA8
:1095E000625307D150EA01331EBF4FF0FE4040F4F2
:1095F0004000704701F0004040F0FE4040F40000A1
:10960000704700BF10F8012B11F8013B012A28BF59
:109610009A42F7D0D01A7047034613F8012B002A5C
:10962000FBD1181A0138704770B505F0E3F9002531
:10963000054E064CA41BA408AC4200D170BD56F8E0
:10964000043B98470135F7E7C8FF3F02F8FF3F02A8
:1096500000F018BA08B500F025FDBDE8084005F097
:1096600081B901F00BBA01F009BA01F015BA000096
:109670000C2008B5024A034901F008F8FEE700BFD4
:1096800029A93F0250F53F027047704732B1012AC5
:1096900001D0013205D10022024B01E00122014B31
:1096A0001A7070478CAE071070477047704770474C
:1096B00070477047704730B585B00446089860B170
:1096C000406850B1856845B1CDE90241CDE900233C
:1096D000C4686A4601AB02A9A04705B030BD08685E
:1096E00001F0DAB9084604F0D1BA30B51368006861
:1096F00085B001938368D1E90045CDE902450BB9F6
:1097000005F0EEFAC36801AA02A9984705B030BD7A
:10971000012A02D1016000207047022A04BF0B68B1
:109720000360F8E703681268D1E9000118470000F8
:1097300038B5037D04460D466BB10368DB6823B181
:109740009A88042A11D09B68F9E70021102001F0C3
:1097500045F808B9207538BD054B036004238380A4
:109760002369C0E902352061F5E7DD60F3E700BF5A
:109770001000030010B50446094B036003F03CFAE7
:10978000214603F085FC05F04DFA04F098FC2046D4
:10979000044B40F8043B03F005FB204610BD00BF1E
:1097A000BCF73F02A4F73F0210B50446FFF7E2FF03
:1097B00020462421FFF759FF204610BD10B58368CD
:1097C000044613B1032201469847204610BD10B548
:1097D000044638B1FFF7F2FF2046BDE810401021E3
:1097E000FFF743BF10BD38B50446102504302A46A4
:1097F0000021206005F0ADFA0123237503232046E4
:10980000A580E38038BD38B50446006928B1856875
:10981000002100F0F1FF2846F8E7204638BD00009F
:1098200070B5037D04460E4615468BB10368DB68B0
:1098300083B19A88012A06D09B68F9E79B684BB1EF
:109840009A88012AFAD12BB19A89B242F6D19D7336
:10985000204670BD0021102000F0C0FF08B920751F
:10986000F6E7054B036001238380236986818360CB
:1098700085732061ECE700BF1000030010B50446BB
:10988000006818B101F008F90023236010BD1FB56E
:109890000446684604F05FFA6946204604F08DFAF3
:1098A00007236846237404F0F1F9204604B010BD84
:1098B0000EB44FF0200C002300B58CB00DAA52F866
:1098C000041BCDE904C3CDE900120392016804AA88
:1098D0001E2000F0F7FE0CB05DF804EB03B07047FB
:1098E000002230B585B00D466946009200F014FFA5
:1098F00090B9009C0CB1236923B90A20074A084992
:1099000000F0C4FE0C23CDE90135042301210393AB
:109910002046236901AA984705B030BD29A93F0216
:1099200065F53F0207B5032001A9FFF7D9FF40B94C
:10993000BDF8043000EE103ABBEECC0A03B05DF87F
:1099400004FBBFEE000AF9E707B5072001A9FFF7FE
:10995000C7FF0028A8BF019803B05DF804FB38B525
:10996000002383608B6804460D462BB10222984782
:10997000EB68E360AB68A360204638BD2DE9F04397
:109980004FF0000995B01C99054604A890461F4663
:109990000CAEFFF7E4FF04A908A8FFF7E0FF08A951
:1099A0003046FFF7DCFF1020CDF84890FFF759FE56
:1099B0000446A0B196E8030001AB83E8030094E8F5
:1099C000030086E8030093E803000E9BE268A360AF
:1099D00084E803000F9BCDF838900F92E360244B8E
:1099E00000221393234B4FF0000912930023C5E983
:1099F0000023214B1020C5F808901094CDE90139BF
:109A0000CDF80C90FFF72DFE0446D8B1129BC0F89C
:109A1000089033B1022210A99847139BE360129B70
:109A2000A360164B404603933946154A01AB029496
:109A300000F09CFEB0B12046FFF7C0FE102120468A
:109A4000FFF713FE10A8FFF7B9FE3046FFF7B6FE8A
:109A500008A8FFF7B3FE04A8FFF7B0FE284615B02C
:109A6000BDE8F083029BC5E90087AB60EAE700BF71
:109A70007B9C3F0251A23F0202000C005F9D3F020F
:109A8000479C3F02F0B52DED028B45F255557D4CBC
:109A90008FB005F07BF8214602220A2000F0A6FCD8
:109AA000238806ACAB423CD077497848FFF700FFEB
:109AB0001422002109A805F04CF9FF228DF8272077
:109AC00040F2DC522023ADF8202040F628728DF8B9
:109AD0001D30ADF81E2001234FF461728DF81C304B
:109AE000ADF82220069341F210028DF828301C2395
:109AF000002120468DF82930ADF8242000F08AFEA0
:109B0000634902466148FFF7D3FE05F03FF80A209B
:109B100002A90422029500F077FC5E495B48FFF73A
:109B2000C7FE5D4B4FF4807206935C4B02A809930D
:109B30005B4B009408930023FFF720FF2046FFF7BC
:109B40003DFE41F288350323CDE906350123ADF80A
:109B50002030002320468DF8223001F093F928466A
:109B600001F034F8FFF7DEFEB0EE408AFFF7ECFEBE
:109B70004C4B20EAE07253F822204B4905464348FB
:109B8000FFF796FE18EE100AFFF7F6FB02460B46AB
:109B900006460F463D484549FFF78AFEF2EE0E7A2B
:109BA000B4EEE78AF1EE10FA01DA022D45D100F0A9
:109BB00069FE002000F036FC4EF6602605460020C7
:109BC00000F030FC401B61F10001B04271F1000374
:109BD00005D200F065FE10B900F046FEEFE700F098
:109BE0005FFE00F05DFE00BB31492848FFF760FED4
:109BF0002046FFF7F8FD9DF82C3013B102238DF8B5
:109C0000203002221C212046FFF70AFE2949FFF7D7
:109C10008FFD214602A804F07DF902A8FFF72EFE71
:109C200004F074F92046FFF7EEFD00F0C3FB224B71
:109C300018600FB0BDEC028BF0BD3B4632461F49A9
:109C40001248FFF735FE2046FFF7CDFD9DF82C307A
:109C500013B102238DF8203002221C212046FFF789
:109C6000DFFD1449FFF764FD214602A804F052F914
:109C700002A8FFF703FE04F049F92046FFF7C3FDF1
:109C8000D7E700BFB8AE07108BF53F0238AF07101B
:109C9000A4F53F02BDF53F021D9C3F02B59C3F026B
:109CA000A19C3F0278F83F02CDF53F02FCF63F024F
:109CB000DFF53F0280EE3600BCAE071003F63F0230
:109CC000012A37B5044604D10B680360002003B0B5
:109CD00030BD022A0CD0032AF8D10468002CF5D03C
:109CE0002046FFF76BFD10212046FFF7BEFCEDE795
:109CF000096810200191FFF7B4FC054610B10199E5
:109D0000FFF72DFE2560E1E770B51426D0E900537A
:109D1000044606FB0356AE4204D0284603F0B6FFC5
:109D20001435F8E7206800F0B7FE204670BD00004B
:109D300013B5037C0446FF2B08D0054A5BB20146ED
:109D400052F8233001A89847FF23237402B010BDB6
:109D5000CCF73F0270B5D1E9004328260D4606FB3B
:109D60000346A64208D004F11000FFF7E1FF2046A9
:109D700003F08CFF2834F4E72868BDE8704000F059
:109D80008BBE70B5D1E9005318260C4606FB03566E
:109D9000AE4204D02846FFF7CBFF1835F8E720681D
:109DA000BDE8704000F078BE8842F8B504460D4624
:109DB000164616D9904215D2A2F11406751AA1F1D1
:109DC00014072C44B7421CD02CB13146204603F076
:109DD000F4FF337C2374304603F058FF143E143CE8
:109DE000F0E70ED0B5420CD02CB12946204603F046
:109DF000E4FF2B7C2374284603F048FF1435143409
:109E0000F0E7F8BD00232DE9F041C0E9003383609D
:109E10004F6804469F420E4624DD4FF0140808FBAD
:109E200007F000F02BFE0546E0B1D4E9001208FB74
:109E30000212FFF7B9FF206800F02EFE2560A76030
:109E4000D6E9007308FB0378B84509D0394628469F
:109E500003F0CDFF3B7C143505F8043C1437F3E7E1
:109E6000736863602046BDE8F081000070B500248F
:109E7000234B244A8CB09A60C3E90044022000F0CE
:109E800059FCCDE90044029404F0CCFE1E4C05467A
:109E90002646694603A8FFF7B5FF03A906A8FFF702
:109EA000B1FF1A4B06A946F8043B09A8FFF7AAFF21
:109EB00009AA1E21304603F08BF909A8FFF724FFF9
:109EC00006A8FFF721FF124B2562236003A8FFF7C6
:109ED0001BFF104B236004F0A5FE4FF4E13104F0AA
:109EE000EBF802F089FE214603F08CF86846FFF794
:109EF0000BFF09480CB0BDE8704001F065BD00BF24
:109F00006CAE07100000FFFF94AE0710A4F73F02ED
:109F1000A0FC3F02BCF73F0278AE071070B58CB0D2
:109F200006A91820FFF7DCFC041EA8BF069CFFF75B
:109F30000BFD0546FFF7F6FC10EE106A1822002113
:109F4000684604F006FF3046FFF716FA062306AA15
:109F5000CDE90601454968468DF8283004F02EFC0D
:109F600006A8FFF7E5FE424B25EAE57553F82510F4
:109F700006A8FFF78CFC06AA3E49684604F01EFCC2
:109F800006A8FFF7D5FE3C4B24EAE47453F82410EE
:109F900006A8FFF77CFC394906AA684604F00EFCC7
:109FA00006A8FFF7C5FE364B1B78002B37D1354985
:109FB000354801F0B1FD6946334801F02BFE3249C6
:109FC00006A801F08DFB06A9304800F054FF06A852
:109FD00001F012FD694606A804F094F9069A2C498E
:109FE0002C48FFF765FC06A803F050FE002000F0A7
:109FF00019FA4EF660250446234E002000F012FAAE
:10A00000001B61F10001A84271F1000309D2304642
:10A0100001F08AFB012804D100F026FCEDE71E497F
:10A02000C6E7194801F080FB174801F07DFB0228C4
:10A030000BD11A491748FFF73BFC134801F0F2FC1B
:10A040006846FFF775FE0CB070BD0F4801F06CFB61
:10A050000338C0B20128F3D80B4801F0C7FB104900
:10A0600002460C48FFF724FCE7E700BF2DF63F024D
:10A0700078F83F023FF63F0260F83F024EF63F029B
:10A08000BAAE07105CF63F0278AE0710C0AF0710FB
:10A090006AF63F0238AF071064F63F0278F63F02D7
:10A0A0008AF63F02F0B52DED028B8BB0FFF74CFC2A
:10A0B0000446FFF737FC10EE105A7F4E24EAE47492
:10A0C00056F824207D497E48FFF7F2FB2846FFF72B
:10A0D00053F97C4C0B4602467B497948FFF7E8FB75
:10A0E0002378042B5DD8DFE813F0050017009400F7
:10A0F0009F00D60000F0D4FB744D00283ED000F045
:10A1000059F92A687249821A6D48FFF7D1FB012379
:10A11000237000F04FF92860FFF716FC0546FFF7A3
:10A1200001FCB0EE408A25EAE57356F82320634926
:10A130006348FFF7BDFB18EE100AFFF71DF9F2EEBA
:10A140000E8A02460B465E485F49FFF7B1FBB4EE4C
:10A15000E88AF1EE10FA28DB023D012D25D85D4D8D
:10A160002B68BBB900F026F90023286023700BB0E0
:10A17000BDEC028BBDE8F040FFF7D0BE00F01AF94D
:10A180002B68C01A544B98420BD954494C48FFF7DE
:10A190008FFB47E000F00EF92B68C01A504B984235
:10A1A000E0D80BB0BDEC028BF0BDFFF7BBFB10EEAF
:10A1B000100AB0EE408AFFF7DFF802460B4606466B
:10A1C0000F463F484049FFF773FBB4EEE88AF1EED3
:10A1D00010FA17DBFFF7A2FE00F0ECF83B4B1D680E
:10A1E00042F20F73401B98421CD800F0E3F805F5CB
:10A1F0001C521032121A3B493148FFF759FB022317
:10A200002370CEE732463B4637492D48FFF750FBD7
:10A21000E2E700F0CFF82D4B1B68C01A42F20F7333
:10A220009842BED90323EBE7304B1B7853B130493A
:10A230002348FFF73DFB0423237000F0BBF8234BBA
:10A240001860AEE72B4A2C491D48FFF731FB2B481D
:10A2500003F0DBFA294803F0EDFA04A8FFF7C3FA8C
:10A260009DF8243013B102238DF8183002221C21EE
:10A2700004A8FFF7D5FA1F49FFF75AFA04A901A865
:10A2800003F048FE01A8FFF7F9FA03F03FFE04A827
:10A29000FFF7B9FA85E7154B1B780BB9184975E735
:10A2A00000F088F8094B1B68C01A164B98427FF6DD
:10A2B00078AF15496AE700BF78F83F02CDF53F0255
:10A2C00038AF0710BAAE0710FCF63F02BCAE07105D
:10A2D000A2F63F0290AE07103F7E0500C3F63F0294
:10A2E0009FBB0D000FF73F02E5F63F028CAE071053
:10A2F0002EF73F0280EE360047F73F0264AF0710AB
:10A3000066F73F02DF93040080F73F0209B5044877
:10A310000068044B03441B685B6C029309BD00009A
:10A32000F8AD07103000000009B504480068044B80
:10A3300003441B689B6C029309BD0000F8AD071035
:10A340003000000009B504480068044B03441B6852
:10A35000DB6C029309BD0000F8AD0710300000006F
:10A3600009B504480068044B03441B685B6D029305
:10A3700009BD0000F8AD07103000000009B5044821
:10A380000068044B03441B685B68029309BD00002E
:10A39000F8AD07100000000009B504480068044B40
:10A3A00003441B68DB68029309BD0000F8AD071089
:10A3B0000000000009B504480068044B03441B6812
:10A3C0005B69029309BD0000F8AD071000000000B2
:10A3D00009B504480068044B03441B689B6A029358
:10A3E00009BD0000F8AD07100000000009B50448E1
:10A3F0000068044B03441B685B6C029309BD0000BA
:10A40000F8AD07100000000009B504480068044BCF
:10A4100003441B689B6C029309BD0000F8AD071054
:10A420000000000009B504480068044B03441B68A1
:10A43000DB6D029309BD0000F8AD071000000000BD
:10A4400009B504480068044B03441B685B69029328
:10A4500009BD0000F8AD07104C00000009B5044824
:10A460000068044B03441B689B68029309BD00000D
:10A47000F8AD07105000000009B504480068044B0F
:10A4800003441B68DB68029309BD0000F8AD0710A8
:10A490005000000009B504480068044B03441B68E1
:10A4A0009B68029309BD0000F8AD0710240000006E
:10A4B00009B504480068044B03441B68DB68029339
:10A4C00009BD0000F8AD07102400000009B50448DC
:10A4D0000068044B03441B681B69029309BD00001C
:10A4E000F8AD07102400000009B504480068044BCB
:10A4F00003441B685B69029309BD0000F8AD0710B7
:10A500002400000009B504480068044B03441B689C
:10A510009B69029309BD0000F8AD071024000000FC
:10A5200009B504480068044B03441B68DB690293C7
:10A5300009BD0000F8AD07102400000009B504486B
:10A540000068044B03441B681B6A029309BD0000AA
:10A55000F8AD07102400000009B504480068044B5A
:10A5600003441B689B6A029309BD0000F8AD071005
:10A570002400000009B504480068044B03441B682C
:10A58000DB6A029309BD0000F8AD0710240000004B
:10A5900009B504480068044B03441B681B6C029314
:10A5A00009BD0000F8AD07102400000009B50448FB
:10A5B0000068044B03441B681B68029309BD00003C
:10A5C000F8AD07103400000009B504480068044BDA
:10A5D00003441B685B68029309BD0000F8AD0710D7
:10A5E0003400000009B504480068044B03441B68AC
:10A5F0009B68029309BD0000F8AD0710340000000D
:10A6000009B504480068044B03441B681B690293A6
:10A6100009BD0000F8AD07103400000009B504487A
:10A620000068044B03441B685B69029309BD00008A
:10A63000F8AD07103400000009B504480068044B69
:10A6400003441B689B69029309BD0000F8AD071025
:10A650003400000009B504480068044B03441B683B
:10A66000DB69029309BD0000F8AD0710340000005B
:10A6700009B504480068044B03441B681B6A029335
:10A6800009BD0000F8AD07103400000009B504480A
:10A690000068044B03441B685B6B029309BD000018
:10A6A000F8AD07104800000009B504480068044BE5
:10A6B00003441B681B6D029309BD0000F8AD071031
:10A6C0004800000009B504480068044B03441B68B7
:10A6D0005B6D029309BD0000F8AD07104800000053
:10A6E00009B504480068044B03441B68DB6E029301
:10A6F00009BD0000F8AD07104800000009B5044886
:10A700000068044B03441B681B6F029309BD0000E3
:10A71000F8AD07104800000009B504480068044B74
:10A7200003441B68D3F89830029309BDF8AD0710B5
:10A730004800000009B504480068044B03441B6846
:10A740005B68029309BD0000F8AD07100800000027
:10A7500009B504480068044B03441B685B69029315
:10A7600009BD0000F8AD07100800000009B5044855
:10A770000068044B03441B681B6A029309BD000078
:10A78000F8AD07100800000009B504480068044B44
:10A7900003441B685B6D029309BD0000F8AD071010
:10A7A0000800000009B504480068044B03441B6816
:10A7B000D3F88830029309BDF8AD071008000000F7
:10A7C00009B504480068044B03441B68D3F894306F
:10A7D000029309BDF8AD07100800000009B5044850
:10A7E0000068044B03441B68D3F89830029309BDFA
:10A7F000F8AD07100800000009B504480068044BD4
:10A8000003441B68D3F89C30029309BDF8AD0710D0
:10A810000800000009B504480068044B03441B68A5
:10A82000D3F8A830029309BDF8AD07100800000066
:10A8300009B504480068044B03441B68D3F8AC30E6
:10A84000029309BDF8AD07100800000009B50448DF
:10A850000068044B03441B68D3F8B030029309BD71
:10A86000F8AD07100800000009B504480068044B63
:10A8700003441B689B68029309BD0000F8AD0710F4
:10A880002C00000009B504480068044B03441B6811
:10A89000DB68029309BD0000F8AD07102C00000032
:10A8A00009B504480068044B03441B685B690293C4
:10A8B00009BD0000F8AD07102C00000009B50448E0
:10A8C0000068044B03441B689B6B029309BD0000A6
:10A8D000F8AD07102C00000009B504480068044BCF
:10A8E00003441B68DB6B029309BD0000F8AD071041
:10A8F0002C00000009B504480068044B03441B68A1
:10A900005B68029309BD0000F8AD07102800000045
:10A9100009B504480068044B03441B689B68029314
:10A9200009BD0000F8AD07102800000009B5044873
:10A930000068044B03441B68DB68029309BD0000F8
:10A94000F8AD07102800000009B504480068044B62
:10A9500003441B681B69029309BD0000F8AD071092
:10A960002800000009B504480068044B03441B6834
:10A970005B69029309BD0000F8AD071028000000D4
:10A9800009B504480068044B03441B689B690293A3
:10A9900009BD0000F8AD07102800000009B5044803
:10A9A0000068044B03441B68DB69029309BD000087
:10A9B000F8AD07102800000009B504480068044BF2
:10A9C00003441B681B6A029309BD0000F8AD071021
:10A9D0002800000009B504480068044B03441B68C4
:10A9E0001B6B029309BD0000F8AD071028000000A2
:10A9F00009B504480068044B03441B685B6B029371
:10AA000009BD0000F8AD07102800000009B5044892
:10AA10000068044B03441B681B6C029309BD0000D3
:10AA2000F8AD07102800000009B504480068044B81
:10AA300003441B685B6C029309BD0000F8AD07106E
:10AA40002800000009B504480068044B03441B6853
:10AA50005B6D029309BD0000F8AD071028000000EF
:10AA600009B504480068044B03441B689B6D0293BE
:10AA700009BD0000F8AD07102800000009B5044822
:10AA80000068044B03441B681B68029309BD000067
:10AA9000F8AD07100400000009B504480068044B35
:10AAA00003441B685B68029309BD0000F8AD071002
:10AAB0000400000009B504480068044B03441B6807
:10AAC0009B68029309BD0000F8AD07100400000068
:10AAD00009B504480068044B03441B68DB69029312
:10AAE00009BD0000F8AD07100400000009B50448D6
:10AAF0000068044B03441B685B6A029309BD0000B5
:10AB0000F8AD07100400000009B504480068044BC4
:10AB100003441B68DB6A029309BD0000F8AD07100F
:10AB20000400000009B504480068044B03441B6896
:10AB30001B6B029309BD0000F8AD07100400000074
:10AB400009B504480068044B03441B68DB6B02939F
:10AB500009BD0000F8AD07100400000009B5044865
:10AB60000068044B03441B681B6C029309BD000082
:10AB7000F8AD07100400000009B504480068044B54
:10AB800003441B685B6C029309BD0000F8AD07101D
:10AB90000400000009B504480068044B03441B6826
:10ABA0009B6D029309BD0000F8AD07100400000082
:10ABB00009B504480068044B03441B68DB6D02932D
:10ABC00009BD0000F8AD0710040000000021FFF7E8
:10ABD000BFBD38B5046805467CB16368013B63605E
:10ABE0005BB9236820469B689847A368013BA36034
:10ABF0001BB923682046DB689847284638BD38B51E
:10AC00000D1E0446006803DDFFF754FF18B938BD78
:10AC1000FFF742FF00202060A5600120F7E738B56C
:10AC20000023C0E9003383600D4649680446994219
:10AC300010DDFFF7E4FF68B1D5E90031226819445F
:10AC4000994205D00AB11878107001330132F7E744
:10AC50006B686360204638BD10B543680446013B0D
:10AC6000436063B903689B689847A368013BA3608E
:10AC70002BB923682046BDE81040DB68184710BD9B
:10AC800070B50446D0E9005305EB0316AE4204D07C
:10AC9000284602F0FBFF1035F8E72068FFF7FCFEBE
:10ACA000204670BD002302480360FFF72FBB00BFA2
:10ACB000C0AE0710F0B5D0E9004600200E4F264484
:10ACC000B44214D0431C9A4211D914F8015B4FEAE4
:10ACD000151C17F80CC001F800C00230824281BF79
:10ACE00005F00F057D5DCD5403461846E8E7824226
:10ACF00084BF00230B54F0BD94F83F0230B50D46DD
:10AD000085B012490446684603F025F8696868462C
:10AD1000490002F0EDFF48B920460C4903F01BF84A
:10AD2000684602F0B3FF204605B030BD00216846FA
:10AD300003F0A8F8029A014601322846FFF7BAFF4D
:10AD40006946204603F039F8EAE700BF6AFC3F0293
:10AD50000022C0E90022826010B50C680A6004601D
:10AD60004C684A6044608C688A60846010BD002230
:10AD700040681146FFF7E8BD002240681146FFF722
:10AD80001BBE002240681146FFF732BE0022406819
:10AD9000FFF720BE0022406881F00101FFF7FEBDF1
:10ADA000002340681A461946FFF7EABD00234068B1
:10ADB0001A461946FFF7D6BD002240681146FFF734
:10ADC000A7BD002202214068FFF7B0BD0023406804
:10ADD0001A46FFF78FBD000010B52824074B224606
:10ADE0001846002103F0B5FF4FF0FF324260042205
:10ADF000034B04805A60034A1A6010BDCCAE0710A2
:10AE0000C4AE0710ACF83F0207B591F91030054AFF
:10AE10000133019052F8233001A8984703B05DF840
:10AE200004FB00BFE8F83F0208B5FFF76DFE000025
:10AE3000002213B50446027491F91030054A01331B
:10AE4000CDE9000152F8233068469847204602B009
:10AE500010BD00BF18F93F02002242810C2202807F
:10AE60000A6882700A7AC2704A6842604A7A02723C
:10AE70008A7A42727047084608B500F085FFC043E1
:10AE8000C00F08BD1FB50023014601A8FFF7E4FF6E
:10AE9000024619460220FFF711FD05B05DF804FBDC
:10AEA0001FB5044601A8FFF753FF019B029A2068D3
:10AEB000236063686260039A0293A368A2600190B2
:10AEC0000393FFF7E9FD04B010BD0022C0E90022A2
:10AED000826010B50C680A6004604C684A60446087
:10AEE0008C688A60846010BD0022C0E90022826004
:10AEF00010B50C680A6004604C684A6044608C6855
:10AF00008A60846010BD70B52826D0E900530446DD
:10AF100006FB0356AE4208D005F11000FEF708FF0D
:10AF2000284602F0B3FE2835F4E72068FFF7B4FDA9
:10AF3000204670BD70B51826D0E90053044606FBC4
:10AF40000356AE4204D02846FEF7F2FE1835F8E765
:10AF50002068FFF7A1FD204670BD08B50068FEF728
:10AF6000E7FE08BD10B50468237C23B12046FEF738
:10AF7000DFFE0023237410BD70B504680546237CF2
:10AF80000E46032B04D123680A6822600B6070BD53
:10AF9000FF2B0CD00E6840682146FFF735FF2C6868
:10AFA0002046FEF7C5FE032326602374EFE7204604
:10AFB000FEF7BEFE33682360032323746868FEF740
:10AFC000B7FEE4E770B504680546237C0E46022B05
:10AFD00004D123680A6822600B6070BDFF2B0CD07F
:10AFE0000E6840682146FFF70FFF2C682046FEF7E9
:10AFF0009FFE022326602374EFE72046FEF798FEAB
:10B0000033682360022323746868FEF791FEE4E747
:10B0100070B504680546237C0E46012B04D12378C5
:10B020000A7822700B7070BDFF2B0CD00E78406830
:10B030002146FFF7E9FE2C682046FEF779FE012342
:10B0400026702374EFE72046FEF772FE33782370F4
:10B05000012323746868FEF76BFEE4E710B501680E
:10B0600004460B7CFF2B05D04068FFF7CDFE20681F
:10B07000FEF75EFE10BD38B5056804462B7C5BB15B
:10B08000FF2B0AD029464068FFF7BEFE2468204601
:10B09000FEF74EFE0023237438BD2846FEF748FE17
:10B0A00000232B746068FEF743FEF5E77FB5046864
:10B0B0000546237C0E460A2B14D16846FFF714FF81
:10B0C0002B6800991A681960019900925A685960B2
:10B0D000029901929A68684699600292FFF713FFFD
:10B0E00004B070BD2046FEF723FE0A2331462046F9
:10B0F0002374FFF7F9FE207C0A28F1D0A0F1FF03AA
:10B1000058425841FFF790FE7FB504680546237CFE
:10B110000E46092B14D101A8FFF7D7FE2B68019921
:10B120001A681960029901925A685960039902924B
:10B130009A6801A899600392FFF7FCFE04B070BD05
:10B140002046FEF7F5FD0923314620462374FFF71C
:10B15000BCFE207C0928F1D0A0F1FF0358425841E1
:10B16000FFF762FE38B504680D46237C2046082BA5
:10B1700003D1BDE83840FFF793BEFEF7D9FD0823A1
:10B18000294620462374FFF7E3FD207C082805D0DC
:10B19000A0F1FF0358425841FFF746FE38BD38B5CD
:10B1A00004680D46237C2046072B03D1BDE83840B8
:10B1B00002F028BEFEF7BCFD072329462046237473
:10B1C00002F0FBFD207C072805D0A0F1FF035842C8
:10B1D0005841FFF729FE38BD38B504680D46237C79
:10B1E000062B04D1D5E90023C4E9002338BD20464D
:10B1F000FEF79EFD06232374F4E738B504680D4678
:10B20000237C052B04D1D5E90023C4E9002338BDF4
:10B210002046FEF78DFD05232374F4E738B5046856
:10B220000D46237C042B04D1D5E90023C4E9002377
:10B2300038BD2046FEF77CFD04232374F4E738B5BF
:10B2400004680D46237C032B02D12B68236038BD94
:10B250002046FEF76DFD03232374F6E738B5046836
:10B260000D46237C022B02D12B68236038BD20467B
:10B27000FEF75EFD02232374F6E738B504680D4639
:10B28000237C012B02D12B78237038BD2046FEF79A
:10B290004FFD01232374F6E7F8B504680546237CC7
:10B2A0000E46062B08D1D4E90023D1E90001C4E9F8
:10B2B0000001C6E90023F8BDFF2B0ED0D1E90067DD
:10B2C00040682146FFF7A0FD2C682046FEF730FDC0
:10B2D0000623C4E900672374EDE72046FEF728FD46
:10B2E000D6E90023C4E90023062323746868FEF727
:10B2F0001FFDE0E7F8B504680546237C0E46052BE4
:10B3000008D1D4E90023D1E90001C4E90001C6E96C
:10B310000023F8BDFF2B0ED0D1E90067406821461D
:10B32000FFF772FD2C682046FEF702FD0523C4E9F5
:10B3300000672374EDE72046FEF7FAFCD6E9002308
:10B34000C4E90023052323746868FEF7F1FCE0E7F5
:10B35000F8B504680546237C0E46042B08D1D4E9D1
:10B360000023D1E90001C4E90001C6E90023F8BDCA
:10B37000FF2B0ED0D1E9006740682146FFF744FD5E
:10B380002C682046FEF7D4FC0423C4E9006723742C
:10B39000EDE72046FEF7CCFCD6E90023C4E9002304
:10B3A000042323746868FEF7C3FCE0E77FB50468F4
:10B3B0000646237C0D460A2B0DD123680A682260BD
:10B3C0000B6063684A6862604B60A3688A68A26029
:10B3D0008B6004B070BDFF2B14D06846FFF784FD6E
:10B3E000D6E90010FFF710FD34682046FEF7A0FCF8
:10B3F00069462046FFF778FD0A2368462374FFF765
:10B4000082FDE6E72046FEF793FC29462046FFF73B
:10B410006BFD0A2323747068FEF78AFCD9E77FB5B9
:10B4200004680646237C0D46092B0DD123680A6863
:10B4300022600B6063684A6862604B60A3688A6838
:10B44000A2608B6004B070BDFF2B14D001A8FFF781
:10B450003CFDD6E90010FFF7D7FC34682046FEF724
:10B4600067FC204601A9FFF730FD092301A82374DA
:10B47000FFF760FDE6E72046FEF75AFC2946204626
:10B48000FFF723FD092323747068FEF751FCD9E709
:10B490007FB5056804462B7C0E46082B10D1294643
:10B4A00001A8FFF755FC31462846FFF7F9FC304666
:10B4B00001A9FFF7F5FC0198FFF7EEFA04B070BDA3
:10B4C000FF2B11D001A8FFF743FCD4E90010FFF7D0
:10B4D0009BFC24682046FEF72BFC204601A9FFF7C1
:10B4E00037FC08232374E6E72846FEF721FC3146A3
:10B4F0002846FFF72DFC08232B746068FEF718FC24
:10B50000DCE77FB5056804462B7C0E46072B10D17F
:10B510002946684602F051FC3146284602F072FC8A
:10B520006946304602F06EFC684602F0AFFB04B09C
:10B5300070BDFF2B11D0684602F03FFCD4E900102B
:10B54000FFF762FC24682046FEF7F2FB69462046BE
:10B5500002F033FC07232374E6E72846FEF7E8FBF6
:10B560003146284602F029FC07232B746068FEF759
:10B57000DFFBDCE707B503688DF807100122DB6805
:10B580000DF10701984703B05DF804FB704700F226
:10B59000FF3020F47F7020F00300B0F5806F38BFDB
:10B5A0004FF480607047000038B5084DD5E88F3FF4
:10B5B00013F0010408D12846FFF7ECFA20B1044B40
:10B5C00028461C60FFF7F4FA014838BDF4AE0710B6
:10B5D00008AF0710024B186808B1FEF7A5BE704708
:10B5E0000CAF071038B50B4DD5E88F3F13F00104B1
:10B5F0000DD12846FFF7CEFA48B107480460FEF7A0
:10B6000085FE2846FFF7D4FA044803F06CFB024895
:10B6100038BD00BFF8AE07100CAF071065BB3F0286
:10B6200008B1FEF78FBE704770B504460E46FFF7AF
:10B63000D9FF05460068FFF7F3FF3046FFF7A7FF85
:10B640002368181A4ABF002320602360286818B1B5
:10B65000BDE87040FEF784BE70BD034600B5021D14
:10B66000D2E8EF1F01F1FF3CC2E8EECFBEF1000FC0
:10B67000F6D1012904D11B685DF804EB5B6818471B
:10B680005DF804FB10B504460021006803F000FAE1
:10B69000204610BD10B504460068FFF7FDF92046AE
:10B6A00010BD000010B50446074B40F8103BFEF7F4
:10B6B00085F80021E06803F007FA04F10800FFF7BD
:10B6C000E9FF204610BD00BFFCFA3F0210B504465A
:10B6D000FFF7E8FF20463C21FDF7C7FF204610BDDD
:10B6E0004FF47A730022C0E90123074B03600B6912
:10B6F00003613BB1043353E8002F013243E80021DA
:10B700000029F8D1704700BF0CFB3F02002210B5A2
:10B710004FF47A74C0E90124024C04600C680A609A
:10B72000046110BD0CFB3F02036913B193F82000C4
:10B7300070470420704708B5FFF7F6FF012803D0D3
:10B74000043818BF012008BD0020FCE708B5FFF74A
:10B75000EBFF043818BF012008BD000010B58AB007
:10B760000446FFF7F3FFA8B12369D86890B1002120
:10B7700003F0E2F900280DDA00242023CDE9023499
:10B78000054B0190009332202346044902AAFEF79C
:10B790008BFF20460AB010BDA5F93F0248F93F02D1
:10B7A00010B58AB00446FFF7D1FFA8B12369D86865
:10B7B00090B1002103F0C0F9021E0FDA002420230B
:10B7C000CDE90234074B322001920093064923460B
:10B7D00002AAFEF769FF20460AB010BD2369D86AA5
:10B7E000101AF9E7A5F93F0248F93F0203690BB1C6
:10B7F000986B704700487047FCFEFFFF30B58DB076
:10B80000039105461446FFF7A1FF039928B928467E
:10B810000DB0BDE83040FFF7E9BF2B69D86838B9F3
:10B82000002C14BF6FF0C804002420460DB030BDBA
:10B83000002500952246DB6A03F062F9041EF4DA63
:10B8400014F1C90FF1D02023CDE90435044B322087
:10B85000009304492B46019404AAFEF725FFE4E770
:10B8600061F93F0248F93F0210B50446FFF7C6FFF1
:10B870000028A1BF2269D36A1B18D36210BDFFF74D
:10B88000F3BF07B501220DF10701FFF7EDFF012816
:10B8900014BF4FF0FF309DF8070003B05DF804FBC4
:10B8A00007B501220DF10701FFF7A8FF012814BF1A
:10B8B0004FF0FF309DF8070003B05DF804FB000077
:10B8C000F0B50369A5B005467F219B682B4A04A803
:10B8D000FFF7FEF87E284ED8002421462046039428
:10B8E00003F0D6F823460222CDE9004404A903A8B8
:10B8F00003F0B2F8061E3CDB2B69D96829BB2B6923
:10B900005A6A72BB00231A224FF48171039803F024
:10B910002FF9041E1FDB00272B6939460093184AB4
:10B92000184B0398019703F0A5F8041E13DB2B694D
:10B930000397043353E8002F013243E80021002924
:10B94000F8D12B693C461E6305E02246039803F0BC
:10B9500001F9041ED3DA03A8FFF794FE204625B0B0
:10B96000F0BD00230C21039803F002F9041EC9DA8C
:10B97000F1E73446EFE76FF0F904EFE7C8F93F026B
:10B98000F5BF3F02D1BF3F0210B50D4904463C2030
:10B9900003F0A2F988B1012343600A4B4FF480629F
:10B9A00003600023C0E90233C0E90A23C0E90C3375
:10B9B000836180F82030436283632060204610BD9D
:10B9C00054FE3F02FCFA3F0200224FF47A7310B596
:10B9D0000446C0E90123034B40F8103BFFF7D4FFB6
:10B9E000204610BD0CFB3F0210B50446006808B1AC
:10B9F000FFF733FE204610BD10B50446034B40F858
:10BA0000103BFFF7F1FF204610BD00BF0CFB3F02CB
:10BA100010B50446FFF7F0FF20461421FDF725FE80
:10BA2000204610BD13B5044601A8FFF7ADFF019AEB
:10BA3000236901A822610193FFF7D6FF02B010BD70
:10BA400007B550631146019205480022FEF79CFE9F
:10BA500000B9019001A8FFF7C7FF03B05DF804FB30
:10BA600035C43F0208B50A4601460020FFF7E8FF4B
:10BA7000002008BD826810B50AB903F031F9C36827
:10BA8000BDE81040184770B5036904460D4686B0FE
:10BA90004BB393F82010A94225D09A63036983F829
:10BAA00020500669B3695BB1014601A8FFF718FE93
:10BAB00006F1100001A9FFF7DDFF01A8FFF79CFFC9
:10BAC000042D10D1002526690021F06802F0FCFF4A
:10BAD000F5602469A36933B104F11001032208461B
:10BAE0009847C4E9065506B070BD10B504460A462D
:10BAF0000321FFF7C8FF2046BDE81040FFF776BEE0
:10BB000010B504460A460421FFF7BDFF2046BDE8F4
:10BB10001040FFF76BBE000030B58DB004460D46F7
:10BB2000FFF709FEA8B12846FDF776FD431E3F2B1F
:10BB3000014611D920220023CDE90423124A3220E4
:10BB40001249009204AAFEF7AFFD20461049FFF704
:10BB5000CCFF20460DB030BD284603F065F90390B8
:10BB600038B920460B49FFF7CBFF03A8FFF792FD3A
:10BB7000EFE70023039323699A68986004A804926E
:10BB8000FFF788FDF1E700BFCDF93F0248F93F021A
:10BB9000F2FEFFFFFCFEFFFF70B5046905468CB0A6
:10BBA00014B3E4687CBB21462046039402F08CFF6A
:10BBB0002B692246996A03A802F078FF061E16DA5E
:10BBC0002023CDE90434114B32201149009304AAFB
:10BBD00023460196FEF768FD31462846FFF790FFA1
:10BBE0002146039802F070FF20460CB070BD2E690C
:10BBF0002146F06802F068FF039B21462046F3606F
:10BC0000039402F061FF2B69DC68EDE7E7F93F027E
:10BC100048F93F02F0B58BB004460E46FFF78BFDA6
:10BC200000B32046FFF7B8FF0746D8B100252369C7
:10BC300030462146DD6202F01FFD061E23DA1B4B53
:10BC40009E424FF02003CDE902350ED1184B322031
:10BC50001849009302AA2B46FEF726FD31462046DE
:10BC6000FFF743FF20460BB0F0BD134B0196009346
:10BC700032202B460F4902AAFEF716FD3146204618
:10BC8000FFF73EFFEEE723692A463846D96A02F0FD
:10BC900045FF061E05DA20230196CDE90235074B44
:10BCA000E5E74FF6E95223695A62DBE712FCFFFF32
:10BCB00008FA3F0248F93F0263FA3F0240FA3F02A6
:10BCC000F0B58BB006460C461546FFF734FD80B93B
:10BCD0003046FFF78BFD041E08DB3046FFF724FDDE
:10BCE00001280CBF6FF06D046FF0D10420460BB03B
:10BCF000F0BD3046FFF750FF28B930460BB0BDE825
:10BD0000F040FFF773BD00273369009721462A46AC
:10BD1000DB6A02F0E7FE041E22DA144B9C424FF06D
:10BD20002003CDE902370DD1114B32201149009388
:10BD300002AA3B46FEF7B8FC21463046FFF7D5FE87
:10BD40000446D3E70C4B322000930A493B4601944A
:10BD500002AAFEF7A9FC21463046FFF7D1FEEFE725
:10BD60003269D36A2344D362C0E700BF12FCFFFFED
:10BD700008FA3F0248F93F0220FA3F0208B5FFF7F0
:10BD80009FFF20EAE07008BDF0B58BB00446FFF7D6
:10BD9000CBFC042805D120460BB0BDE8F040FFF7EE
:10BDA00025BD01280FD120210023384ACDE90213F7
:10BDB00000923220364902AAFEF776FC6FF06D043D
:10BDC00020460BB0F0BD23699B687BB92022CDE9EA
:10BDD0000223304A2E490092322002AAFEF764FC68
:10BDE0002D492046FFF781FE0446E9E72046FFF78C
:10BDF000B5FC0646FFF7D8FB0546FFF7F3FB074601
:10BE00000068FFF70DFC3046FFF7C1FB2B681844B4
:10BE1000B0F5004F98BF2860386894BF0125002511
:10BE200008B1FEF79DFA6DB92023CDE902351B4B11
:10BE30001749009332202B4602AAFEF735FC6FF01B
:10BE4000C701CEE72046FFF73BFD051E16DA0023AB
:10BE50002022CDE90223124A322000920C4902AA84
:10BE60000195FEF721FC29462046FFF73EFE0446D9
:10BE7000FFF79AFB3146FFF7D7FBA1E720460022E8
:10BE80000121FFF700FE00249AE700BF7DFA3F0280
:10BE900048F93F0299FA3F02F2FEFFFFAFFA3F0274
:10BEA000D9FA3F0230B591B008A9089003A8FFF76E
:10BEB0002DFC0846FFF798FD079B93F82020012AE8
:10BEC00004D003A8FFF798FD11B030BD00241C6317
:10BED000FFF76AFB054603A8FFF740FC014628462A
:10BEE000FFF7A2FB079B5B6BA34211DA20220193B1
:10BEF0000A4BCDE9082400933220234608496A44BE
:10BF0000FEF7D2FB079B03A8596BFFF7EEFDD8E7BE
:10BF10002246022103A8FFF7B6FDD2E7D9FA3F0275
:10BF200048F93F020022024BC3E900229A607047A1
:10BF3000FCAE0710002240681146FEF73DBD00220E
:10BF400040681146FEF754BD00224068FEF742BD2E
:10BF50000022406881F00101FEF720BD0023406807
:10BF60001A461946FEF70CBD002340681A461946CA
:10BF7000FEF7F8BC002240681146FEF7E5BC00223F
:10BF800040681146FEF7C4BC002202214068FEF75B
:10BF9000CDBC002340681A46FEF7ACBC0322024B1E
:10BFA0005A60024A1A60704710AF071038FB3F0210
:10BFB000FF210022044B0120C3E9001264211A6111
:10BFC000C3E90201704700BF18AF0710704710B5F2
:10BFD00004461821FDF749FB204610BDF0B5037D4E
:10BFE0000E46062B4FF000048DB000F1040712D06E
:10BFF00000F1080515F8011D0A22304601F0E4FDA4
:10C00000AF42044419D0002CF4D02E21304601F068
:10C01000D8FD0444EEE72F236A4639460A208DF8FE
:10C020000040FEF70DFA6846FDF7F6FA336802465F
:10C0300069463046DB689847044620460DB0F0BD9F
:10C0400010B50446044B1122002140F8043B02F0D5
:10C0500080FE204610BD00BF7CFB3F020346074A1E
:10C0600010B543F8042B01F1100251F8044B914232
:10C0700043F8044BF9D10A781A7010BD7CFB3F02DB
:10C0800010B59DF8084044EA032343EA0242042322
:10C0900042EA01614160037510BD000007B5064B1F
:10C0A0000360CB7800938B784A780978FFF7E8FF34
:10C0B00003B05DF804FB00BF7CFB3F02012200F1EE
:10C0C000100313F8101C1846012908D153F8041C5A
:10C0D00002EB4102013A03F11003F2D17047022949
:10C0E00004BF53F8041C5218F4E70EB4F0B588B03E
:10C0F000102100AF07F1340555F8042B04462B46F8
:10C1000078187A60FD60FEF7F1FC0F287A681AD97A
:10C1100000F1080323F007036E46ADEB030D411C4D
:10C120002B466846FD60FEF7E1FC021E04DD236835
:10C13000694620469B689847B5462037BD46BDE80E
:10C14000F04003B070470028F7D0236802469B6890
:10C15000204607F110019847EFE738B50B68044611
:10C1600003604D6843689D4208D015B16B68013388
:10C170006B60606808B1FEF76FFD656038BD07B59C
:10C1800003688DF8071001229B680DF1070198479D
:10C1900003B05DF804FB0B461146002210B50446BF
:10C1A000C0E9002283600BB9204610BDFFF7D5FF20
:10C1B000FAE78368EBB11A78032A1AD8DFE802F0AD
:10C1C0000417021B0520704702685B685268D05C48
:10C1D0002D2812D0A0F13003092B0ED974280ED0CF
:10C1E00066280CD0A0F16E035842584170470620D3
:10C1F00070470020704704207047032070470220DA
:10C20000704710B50446FFF7D4FF02280ED0C31EB6
:10C21000DBB2012B14D82268A36850685B680A223D
:10C22000BDE810400021184402F0B8BE2268A3689F
:10C2300052685B68D05CA0F174035842584110BD4D
:10C240000020FCE738B500230446C0E900330E485F
:10C25000C4E90203A9B10B78032B06D08BB913688C
:10C2600058684B68C35C6E2B07D013684D685868DC
:10C270008B6828445B1BA060E36011462046FFF7F3
:10C280006CFF204638BD00BF6AFC3F0238B5002570
:10C290000B4604461146C0E90055C0E90255C0E905
:10C2A00004554BB11A78012A06D103F11002DB685C
:10C2B00082604361FFF751FF204638BD10B54369E6
:10C2C000044663B18068013BE0601030A0602061EB
:10C2D000636113B1FFF7F2FEA060012000E0184691
:10C2E00010BD10B55D210446FFF749FF012320462C
:10C2F000237110BD10B57D210446FFF740FF0123D7
:10C300002046237110BD08B50379012B02D0022B02
:10C3100004D008BD2C21FFF732FFFAE73A21FAE7F3
:10C3200010B50446FFF7EFFF20465B21FFF727FF1C
:10C3300000232046237110BD10B50446FFF7E3FF2C
:10C3400020467B21FFF71BFF00232046237110BDF1
:10C3500038B504460D46FFF7D6FF23689B683DB10C
:10C36000042205492046984701232046237138BD01
:10C3700005220249F6E700BF92FB3F028CFB3F0219
:10C3800013B504460191FFF7BEFF23682046DB6822
:10C39000019A0349984701232046237102B010BD3A
:10C3A0007AFA3F0213B504460191FFF7ACFF236808
:10C3B0002046DB68019A03499847012320462371F0
:10C3C00002B010BD97FB3F0237B50446CDE90032FD
:10C3D000FFF799FFDDE9003221682046CD68034967
:10C3E000A84701232046237103B030BD9AFB3F02CA
:10C3F00037B50446CDE90032FFF785FFDDE90032AD
:10C4000021682046CD680349A847012320462371AF
:10C4100003B030BD9FFB3F022DE9F843064655ECC3
:10C42000104BFFF770FF33682246DF6820462B462B
:10C430002946FDF781F828BB25F000494FF0FF326F
:10C4400020464946124BFDF777F888B94FF0FF3286
:10C45000204649460E4BFDF751F848B920460022C8
:10C4600000232946FDF740F84FF0FF3468B9084D26
:10C470002B46304622460749B847012330463371E0
:10C48000BDE8F88300240025F2E76FF48015EFE79C
:10C49000FFFFEF7FA4FB3F0210B50446FFF733FF19
:10C4A0002368204604229B680249984701232046BE
:10C4B000237110BDA7FB3F022DE9F0470D469046C2
:10C4C000222104462F46FFF75AFEDFF8A490A84425
:10C4D0004745BA463DD017F8016B222E06D05C2E98
:10C4E00004D0304602F006FC0028F1D1236829462A
:10C4F00020469B68AAEB050298475C212046FFF77F
:10C500003EFE0D2E0AD8072E1CD9A6F10803052BD6
:10C5100018D8DFE803F00D0F11171315222E01D0E4
:10C520005C2E0FD131462046FFF729FE3D46CFE76E
:10C530006221F8E77421F6E76E21F4E76621F2E75D
:10C540007221F0E72368324649462046DB68984767
:10C55000ECE7BD4205D02368294620469B687A1B3C
:10C56000984722212046FFF70AFEBDE8F08700BF6A
:10C57000ACFB3F0213B50446CDE90021FFF7C3FE33
:10C58000DDE900212046FFF797FF022320462371B3
:10C5900002B010BD13B50446CDE90021FFF7B3FE8C
:10C5A000DDE900212046FFF787FF012320462371A4
:10C5B00002B010BD0022C0E9002282607047002254
:10C5C000C0E90022826070470022C0E90022826038
:10C5D00070470022C0E90022826070470022C0E953
:10C5E0000022826070470022C0E90022826070470A
:10C5F0000022C0E90022826070470022C0E90022C8
:10C60000826070470022C0E90022826070470022E9
:10C61000C0E90022826070477047704703680A785B
:10C620001A70704703680A681A60704703680A68DE
:10C630001A607047006801F0DABB0368D1E90001B5
:10C64000C3E9000170470368D1E90001C3E90001B3
:10C6500070470368D1E90001C3E900017047000099
:10C66000FF2313B5044603740B7C064A03745BB2C4
:10C670000133019052F8233001A89847204602B0B8
:10C6800010BD00BFB4FB3F0208B50068FEF7C7FA53
:10C6900008BD000007B591F91030054A0133CDE916
:10C6A000000152F823306846984703B05DF804FB58
:10C6B00018F93F0200232DE9F047C0E900338360F9
:10C6C000D1F80480054698450F464EDD4FF0180A14
:10C6D0000AFB08F0FEF7D2F90646002845D0D5E956
:10C6E0000041A0420AFB014A16D9504515D2AAF1D1
:10C6F000180AA4F11809AAEB04040444D1451DD07A
:10C700001CB151462046FEF793FB5046FDF710FB47
:10C71000AAF1180A183CF1E710D0B146A2450DD095
:10C72000B9F1000F03D021464846FEF781FB2046B1
:10C73000FDF7FEFA183409F11809EFE72868FEF74B
:10C74000ABF9C5F808804FF018082E60D7E9004310
:10C7500008FB0348A04506D021463046FFF780FF7E
:10C7600018341836F6E77B686B602846BDE8F0871A
:10C7700008B50068FFF79EFF08BD2DE9F84F0023BC
:10C78000C0E900338360D1F8049007469945884694
:10C7900065DD4FF0280A0AFB09F0FEF76FF9054640
:10C7A00000285CD0D7E90046A0420AFB06461DD906
:10C7B000B0421CD2283EA4F1280A341B0444B245DE
:10C7C00030D006F1100B44B13146204601F00FFB8A
:10C7D000594604F11000FEF72BFB5846FDF7A8FA66
:10C7E000304601F053FA283E283CE8E71AD0AA4622
:10C7F000A64217D004F1100BBAF1000F08D0214661
:10C80000504601F0F4FA59460AF11000FEF710FB09
:10C810005846FDF78DFA204601F038FA28340AF11F
:10C82000280AE5E728263868FEF736F93D60C7F89C
:10C830000890D8E9004306FB0346A6420CD02146E7
:10C84000284601F0D4FA04F1100105F11000FFF7B9
:10C8500007FF28342835F0E7D8F804307B603846E5
:10C86000BDE8F88F012310B504460B701146FFF7A1
:10C8700084FF204610BD08B50068FFF77EFF08BDA5
:10C880008842F8B504460D46164614D9904213D294
:10C89000A2F11006751AA1F110072C44B74218D066
:10C8A0001CB13146204601F088FA304601F0EEF91D
:10C8B000103E103CF2E70CD0B5420AD01CB129461C
:10C8C000204601F07AFA284601F0E0F910351034DC
:10C8D000F2E7F8BD70B50E1E054611DD3001FEF71A
:10C8E000CDF8044658B1D5E9001201EB0212FFF76A
:10C8F000C7FF2868FEF7D0F801202C60AE6070BD3D
:10C900000024F6E710B5044680680368DB689847A2
:10C91000E3681844E06010BD7047084611B10B6829
:10C920005B6818477047704770477047704738B565
:10C9300004460D4600682E2102F04FFA2368C31A00
:10C940002B6023B1037803B10130236820601846BF
:10C9500038BD10B504461021FCF787FE204610BDF7
:10C9600010B504460421FCF780FE204610BD10B52A
:10C9700004460421FCF779FE204610BDFDF7E2BC19
:10C9800008B5FCF73FFEB0FA80F0400908BD7047DB
:10C9900010B50C4601F0FCFB844205D101F0F8FB18
:10C9A000BDE8104001F0E8BB02F03CF9844205D13B
:10C9B00002F038F9BDE8104001F081BB2CB12368CA
:10C9C0002046BDE810405B68184710BD0B68036047
:10C9D0004B68436013B15A6801325A60704713B50F
:10C9E000044608460191FCF717FE024620460199CD
:10C9F00002B0BDE81040FFF7CDBD13B504460846B0
:10CA00000191FCF709FE0246204623680199DB6884
:10CA100002B0BDE81040184707B503688DF807104D
:10CA20000122DB680DF10701984703B05DF804FBB4
:10CA30002DE9F74F4FF0140AD0E900841746454618
:10CA40000AFB04F40093174BA4105C43002C21DD77
:10CA500066100AFB06F005EB0009B9F804B03A4687
:10CA60005F4528BF5A462858019102F0C8F90028AE
:10CA70004FF0010301990BD15F4503D1009A137068
:10CA80003446E3E7FCD9A61B09F11405013EF7E79C
:10CA9000F9DBF5E7A5EB08050248AD10684303B0E4
:10CAA000BDE8F08FCDCCCCCC7FB50369057E01917C
:10CAB00003B3F9B1002600F10C04039603A901A801
:10CAC000FFF735FF0146A8B10DF10B032046039A8D
:10CAD0008DF80B60FFF7ACFF9DF80B3053B1236866
:10CAE000142404FB0034B4F906300834002BA8BF2A
:10CAF000DDB2E3E7284604B070BD0EB4F0B58CB0EB
:10CB000000AF07F1440555F8042B04462B462021BD
:10CB100007F110007A60FD60FDF7E8FF1F287A68D2
:10CB20001AD900F1080323F007036E46ADEB030D9D
:10CB3000411C2B466846FD60FDF7D8FF021E04DD50
:10CB4000236869462046DB689847B5463037BD46BE
:10CB5000BDE8F04003B070470028F7D023680246D4
:10CB6000DB68204607F110019847EFE710B5084C45
:10CB7000D4E88F3FDB0709D42046FEF70BF828B135
:10CB80002046FEF715F8034802F0ADF8024810BD44
:10CB900030AF0710B7CE3F02FCAD071010B5084C00
:10CBA000D4E88F3FDB0709D42046FDF7F3FF28B117
:10CBB0002046FDF7FDFF034802F095F8024810BD3E
:10CBC00034AF07101FCF3F0200AE071038B5002565
:10CBD0000446C0E90055C0E904558560856140F808
:10CBE000245FFDF793FBFFF7C1FFE061FFF7D6FF7E
:10CBF00025732062204638BD10B50A4CD4E88F3F1B
:10CC0000DB070CD42046FDF7C5FF40B10648FFF70F
:10CC1000DDFF2046FDF7CCFF044802F064F802482F
:10CC200010BD00BF2CAF07103CAF0710FDD63F0270
:10CC30000023024A02490348FDF760BDE5D43F02E4
:10CC400071D43F02F1D33F0200231A461946184619
:10CC5000FDF754BD37B504468D686846FFF7B6FE4C
:10CC60006A4629462046FFF711FB01A8FDF7B1FFF0
:10CC7000204603B030BD37B50446CD686846FFF79F
:10CC8000A5FE6A4629462046FFF7DCFA01A8FDF713
:10CC9000A0FF204603B030BD37B504460D69684695
:10CCA000FFF794FE6A4629462046FFF774FA01A86A
:10CCB000FDF78FFF204603B030BD000070B58AB08D
:10CCC0000D46014604A8FFF7C5FF144E04A8FFF760
:10CCD000F5FAE8B1684604A9FFF7CDFF314602989E
:10CCE000FFF74EFE044610B12C1E18BF012401A808
:10CCF000FDF76FFF002CE9D0684604A9FFF7CCFFD1
:10CD00006846FFF77EFA286001A8FDF762FFDDE7BD
:10CD100005A8FDF75EFF0AB070BD00BF10FC3F0222
:10CD200037B50C46134920461546FCF76BFC50B945
:10CD300001F02EFA4FF4165101F01AFA03B0BDE8D3
:10CD4000304001F025BA20460B49FCF75BFC78B96E
:10CD50004FF4165301A928460193FFF7AFFF01F0E6
:10CD600061FF019901F0A8F901F05CFF03B030BD4B
:10CD70000020FBE715FC3F021CFC3F0270B51426A7
:10CD8000D0E90053044606FB0356AE4205D005F138
:10CD90000800FFF7F3FF1435F7E72068FDF77CFE86
:10CDA000204670BD10B504460C30FFF7E7FF204663
:10CDB000FDF766FF204610BD10B50446034B40F852
:10CDC000043BFFF7EFFF204610BD00BFA4F73F0272
:10CDD00010B50446FFF7F0FF20462421FCF745FC80
:10CDE000204610BD10B50446024B0360FFF7E4FF78
:10CDF000204610BDB8FC3F0210B50446FFF7F2FF15
:10CE000020462421FCF731FC204610BD0A6810B5ED
:10CE100002604A6842600022C0E9022202618C6816
:10CE20008A608460CC68CA60C4600C690A6104616D
:10CE300010BD0022C0E90022826010B50C680A60B3
:10CE400004604C684A6044608C688A60846010BDED
:10CE500010B5044603681868FDF782FA204610BD35
:10CE60002DE9F04F87B003931C4B80465B688946E1
:10CE7000C3F3080316466BB9FFF7BEFE044600F184
:10CE80002403406A0593FFF779FD237B2BB105A8A6
:10CE9000FFF7DEFF07B0BDE8F08F01235FFA89F9E5
:10CEA0002373D4E9005305EB830AAA4512D055F841
:10CEB000047B3146381DFFF7F7FD8145F5D3039A12
:10CEC0003B680092D3F808B04A463346414638469C
:10CED000D847EAE700232373D9E700BF00ED00E05D
:10CEE0002DE9F74F9B461A4B80465B688946C3F392
:10CEF000080316466BB9FFF77FFE044600F12403D2
:10CF0000406A0193FFF73AFD237B2BB101A8FFF79D
:10CF10009FFF03B0BDE8F08F0123F6B22373D4E97D
:10CF2000005305EB830A55450ED055F8047B59464E
:10CF3000381DFFF7B9FD8642F5D33B684A464146A6
:10CF40003846DB689847EEE700232373DEE700BF2F
:10CF500000ED00E02DE9F341164B05465B680F46F6
:10CF6000C3F308031BBBFFF747FE044600F124038D
:10CF7000406A0193FFF702FDD4E90063462406EB03
:10CF80008308B04509D101A8FFF762FFA542B4BFED
:10CF90000020012002B0BDE8F08156F8040B3946AC
:10CFA0000430FFF781FD8442A8BF0446E9E7002072
:10CFB000F0E700BF00ED00E0F8B5D0E901539D4275
:10CFC00004460E460DDB6F1C002F006804DDB9001F
:10CFD000FDF770FD18B9F8BDFDF75EFD002020607B
:10CFE000A7602768626807EB85019200A2EB8502C3
:10CFF000081D01F094FE47F82560636801200133A5
:10D000006360E8E737B5044600F12403406A019302
:10D010000D46FFF7B3FCD4E9003203EB82029342E2
:10D0200019460AD009680433A942F8D101A8FFF7CC
:10D030000FFF0025284603B030BD29462046FFF7E4
:10D04000BBFF05460028F1D06368012B01D1FFF733
:10D05000EFFD01A8FFF7FCFEECE70B4670B50446B8
:10D06000D0E9000200EB820282420FD001461D6827
:10D0700051F8046BAE4207D1521A01F050FE012064
:10D080006368013B636070BD0846EDE70020FAE786
:10D090001FB5044600F12403406A01910393FFF792
:10D0A0006DFC204601A9FFF7D8FF18B163680BB9E2
:10D0B000FFF7CAFD03A8FFF7CBFE04B010BD18238D
:10D0C00070B50446D0E9045603FB0656AE4215D0AF
:10D0D000204605F11001FFF7C0FF63680BB9FFF7A9
:10D0E000B3FDE06929690368DB689847696919B18C
:10D0F000206A0368DB6898471835E7E71826D4E903
:10D10000045306FB0356AE4204D0284600F0BEFD91
:10D110001835F8E70023636170BD73B50446FFF767
:10D1200093FD04F12403606A0193FFF727FC204676
:10D13000FFF7C5FF01A8FFF78BFE606A08B1FDF796
:10D14000F3F8D4E90453182606FB0356AE4204D084
:10D15000284600F09BFD1835F8E72069FDF79CFC98
:10D160002068FDF799FC204602B070BD0148FFF72A
:10D17000D4BF00BF3CAF07108842F8B504460D4647
:10D18000164615D9904214D2A2F11406751AA1F1CF
:10D1900014072C44B7421AD01CB131462046FFF781
:10D1A00035FE06F10800FFF7E9FD143E143CF1E7F7
:10D1B0000DD0B5420BD01CB129462046FFF726FE04
:10D1C00005F10800FFF7DAFD14351434F1E7F8BD76
:10D1D0002DE9F04F90460023462295B00391D8F8F0
:10D1E000041004469942C0E90033C0E90233C0E9A3
:10D1F0000433CDE9083302760A9323DCD8E90057DB
:10D20000142303FB0757AF423BD029460BA800F07D
:10D21000D4FD0BA90FA8099E00F0CFFDDDE909138D
:10D2200099421BDA089B099A03EB0616314603EB79
:10D23000021206F11000FFF723FBEEB9099B013340
:10D24000099311E008A8FFF745FB0028D6D108A8EC
:10D25000FDF716FD204615B0BDE8F08F013108A896
:10D26000FFF738FB0028DDD10FA800F00FFD0BA859
:10D2700000F00CFD1435C6E730460FA900F09DFD07
:10D28000DCE700264FF01409CDE90B660D96DDE9C9
:10D2900008239E427CDA3301D35806930BB901363A
:10D2A000F5E70023079309FB06F30BAD029307A9EB
:10D2B00006A8FFF73CFB82460028F0D04FF00003A1
:10D2C00001468DF817302846079A0DF11703FFF72E
:10D2D000AFFB9DF817700190002F4AD1BDF81C30AC
:10D2E000CDE91177ADF840304FF6FF73CDF83CA093
:10D2F000ADF842301397D5E90132934217DB03F1C1
:10D30000010ABAF1000F30DD09FB0AF0FDF7B6FBA8
:10D31000834660B3D5E9001209FB0212FFF72CFF28
:10D320002868FDF7B9FBC5F800B0C5F808A02B6860
:10D33000019A09FB023A6A68514609FB02320AF176
:10D340001400FFF719FFBAF1000F03D050460FA9E0
:10D35000FFF75CFD6B6801336B6011A8FFF70EFDF2
:10D360003FB10BA8FFF70AFD71E7BB46D8E70127DD
:10D37000F3E7019B2D6809FB0355069B1B782BB92E
:10D38000D8F80030029A13441B7CEB8008358EE7F6
:10D390002168226062686360A36809920A9A0A930E
:10D3A000E368A2600B9A0B932369E2600C9A0C93DA
:10D3B000636922610D9A0D93039B08916261237644
:10D3C000CFE70000F0B504462646174687B00D4665
:10D3D00068461946FCF716FD0B4B694646F8043BB8
:10D3E00003A8FCF70FFD394603AA3046FFF7F0FE0D
:10D3F00003A8FCF789FC6846FCF786FC2046034B33
:10D400002562236007B0F0BDA4F73F02A0FC3F02F5
:10D41000F0B50F4685B038461C4916461D460A9C95
:10D42000FCF7F0F8C0B9A4B1294601A8FFF701FD47
:10D430002420174901F050FC054630B101AB3246BB
:10D440002146FFF7BFFF134B2B6001A8FCF75CFCE4
:10D450002C46204605B0F0BD38460F49FCF7D2F8FF
:10D4600090B9002CF5D0294601A8FFF7E2FC242052
:10D47000074901F031FC05460028E6D03246214636
:10D4800001ABFFF79FFFE0E70024E2E724FC3F0247
:10D4900054FE3F02B8FC3F0228FC3F02014B024A07
:10D4A0001A60704738AF071039FC3F022DE9F0478A
:10D4B000089DD0F8209004460E461746984600F086
:10D4C00067FE81454DD02B79190704D520466A693E
:10D4D0005449FFF712FBB8F1000F0DD05B21204635
:10D4E000FFF79AFA41462046FFF787FA236802229F
:10D4F0002046DB684C4998472B79DA0724D5D5F8C4
:10D5000008802F21404601F0B2FC08B100F101086B
:10D5100041462046FFF771FA2B799B0708D53A213F
:10D520002046FFF779FA2046EA684049FFF7E5FA16
:10D530002A79236812F0040F20464FF00202DB68BC
:10D5400014BF3B493B4998472B7958071DD529699A
:10D550000B461A4613F8010B60B1202808D1194672
:10D56000F7E7354800F083F90028ACD0BDE8F08734
:10D570002828EED12368521A2046DB689847236892
:10D5800004222046DB682D49984700213846FDF7E4
:10D59000A7F801462046FFF730FA2368022220460A
:10D5A000DB68244998471EB131462046FFF725FA2B
:10D5B0002B7913F0300F2CD023682149DB6802222D
:10D5C000204698472B79D9060AD52368072220469A
:10D5D0001C49DB6898472046AA691B49FFF78DFA6A
:10D5E0002B799A0611D5DB0605D523680222204641
:10D5F000DB680F4998472368204614490A22DB68F4
:10D6000098472046E969FFF7F8F95D212046FFF7C2
:10D6100003FA23682046BDE8F0470222DB680C4984
:10D62000184700BF3DFC3F0244FC3F027AFA3F022C
:10D6300047FC3F024CFC3F0264AF07104AFC3F022C
:10D640004FFC3F0252FC3F025AFC3F025DFC3F028E
:10D6500068FC3F022DE9F0410446076A0D46164674
:10D6600000F096FD874207D0206A324603682946BB
:10D67000BDE8F041DB681847034800F0F8F80028DF
:10D68000F2D0BDE8F08100BF64AF07102DE9F04390
:10D6900085B0D0F8209005460F4690461E460C9C5B
:10D6A00000F076FD814505D1494800F0E0F80028FA
:10D6B00040F08A804FF000092B6A464A6846CDE95F
:10D6C000023900928DF80490FEF736FE4946404636
:10D6D000FDF706F88046404901226846FEF74AFFFA
:10D6E0004146FFF77CF93FB13C4901226846FEF70D
:10D6F00041FF3946FFF773F93EB1394901226846C7
:10D70000FEF738FF3146FFF76AF92379DF070ED5B8
:10D71000A6682F21304601F0AAFB00B1461C314912
:10D7200001226846FEF726FF3146FFF758F92379B4
:10D730009E0707D52C4902226846FEF71BFFE168C9
:10D74000FEF71EFE2379580714D5266933461F4677
:10D7500013F8012B2AB1202A01D11E46F7E7282A07
:10D76000F5D1022221496846FEF704FF3146BA1B73
:10D77000FEF710FF2379190707D51D4901226846D6
:10D78000FEF7F8FE6169FEF70DFE2379DA0607D58C
:10D79000184904226846FEF7EDFEA169FEF7F0FD88
:10D7A00023799B0607D5144906226846FEF7E2FE58
:10D7B000E169FFF714F96846FEF79CFD286A02222A
:10D7C00003680E49DB68984705B0BDE8F08300BFE9
:10D7D00064AF071088FC3F021AFC3F026BFC3F025B
:10D7E000C3FE3F020DF73F026DFC3F0270FC3F029B
:10D7F0004EF83F0273FC3F0278FC3F0268FC3F0298
:10D80000002340681A46FDF775B8002202214068DF
:10D81000FDF78CB8002240681146FDF779B8002268
:10D8200040681146FDF790B8002340681A46194633
:10D83000FDF798B8002340681A461946FDF7A0B8CE
:10D8400000214068FDF7E2B800214068FDF7ECB820
:10D850000022406881F00101FDF7A0B80022406875
:10D86000FDF7B8B8002240681146FDF7C1B80022A4
:10D8700040681146FDF7A0B800214068FDF7F0B8F8
:10D880002DE9F04395B014460D460746FEF7D8FB48
:10D8900000211C220DA8009101F05BFA40232046D4
:10D8A0000C9300216B460CAAFCF7E6FD0446002809
:10D8B0004BD1024601216868FDF746F802218046F7
:10D8C00022466868FDF740F821468146009E002EFA
:10D8D0003BD0002939D17368022B03D00A2B11D019
:10D8E000F669F4E7B8F1000FFAD0716906A80431BF
:10D8F0003C1D07ADFEF7D2FB0FCD0FC42B68414690
:10D900002370EDE7B9F1000FEAD0102201A8746985
:10D9100001F01FFA062301AD8DF8143004F108035D
:10D9200018342A4618685968083303C2A3421546BA
:10D93000F7D101A906A83C1D07ADFEF78FFB0FCD5F
:10D940000FC42B6849462370CAE70098FCF786FD90
:10D95000384615B0BDE8F083033803289ABF024B60
:10D9600053F8200001487047F8FC3F0264AF0710ED
:10D9700008B500224068FDF765F8BDE80840FFF7EC
:10D98000EBBF0000024B034A1A6000225A60704746
:10D9900064AF071010FD3F0207B503688DF807104C
:10D9A0000122DB680DF10701984703B05DF804FB25
:10D9B000F8B506460D4600248F18BD420CD03368DA
:10D9C00030469B6815F8011B9847031E01DB1C4479
:10D9D000F3E7002C08BF1C462046F8BD704710B581
:10D9E00004460C21FBF741FE204610BD7FB543687D
:10D9F00005460E461446D3B98068826843682244BF
:10DA00009A4216D9142103EB43035B089A4202930E
:10DA100001922CBF01AB02AB03911A68132A98BF85
:10DA200003AB196800F050F918B9064B6B6000247D
:10DA300004E022463146A86800F0ECF9204604B024
:10DA400070BD00BFFCFEFFFF13B50446084659B188
:10DA50000191FBF7E1FD0246204623680199DB684E
:10DA600002B0BDE81040184702B010BD7FB50446B3
:10DA7000007C0D460A2864D8DFE800F0060C1B2461
:10DA80002D37414B55657F00084604B0BDE8704016
:10DA9000FEF702BD012805D0A0F1FF03584258410E
:10DAA000FDF7C2F92846217804B0BDE87040FEF7C2
:10DAB0004FBC0228F0D12846216804B0BDE8704070
:10DAC000FEF75EBC0328E7D12846216804B0BDE814
:10DAD0007040FEF767BC0428DED1D4E90023084675
:10DAE00004B0BDE87040FEF76FBC0528D4D1D4E97E
:10DAF0000023084604B0BDE87040FEF779BC062854
:10DB0000CAD194ED000B084604B0BDE87040FEF7A2
:10DB100083BC0728C0D12846A268216804B0BDE8AC
:10DB20007040FEF737BD0828B6D121466846FDF79C
:10DB3000E5F82846029A0099FEF72CFD684600F0A9
:10DB4000A5F804B070BD0846FEF7EAFB207C092862
:10DB5000A2D1D4E900061823044603FB0606B4420A
:10DB600005D020462946FFF781FF1834F7E72846FD
:10DB700004B0BDE87040FEF7B4BB0846FEF7DCFB1E
:10DB8000207C0A2888D1D4E90036282202FB0636F8
:10DB900003F11004A4F110039E420CD054F8082C99
:10DBA00054F8101C2846FEF7E5FC20462946FFF7EE
:10DBB0005DFF2834EEE7284604B0BDE87040FEF76C
:10DBC00099BB03689B6818470023012A98BF0A2263
:10DBD00030B58BB08DF8243009AC0D46B1FBF2F1B5
:10DBE00001FB125303F0FF03092B94BF303337338B
:10DBF000DBB2AA4204F8013DEFD92146FFF724FF2A
:10DC00000BB030BD1FB50A4600230749CDE902031A
:10DC10000091104669468DF80430FFF727FF0398FE
:10DC200005B05DF804FB00BF88FC3F020022014BF9
:10DC30009A6070476CAF071010B50446FCF7BAFB4A
:10DC4000E060236820465B699847002808DAFCF703
:10DC5000B1FBE368C01AA3689842F2D34FF0FF30DB
:10DC600010BD2DE9F04107460C460D468E18B54211
:10DC7000A5EB040807D03846FFF7DEFF031E02DBE2
:10DC800005F8013BF3E74046BDE8F08110B50446D6
:10DC90000068FCF701FF204610BD10B5044600687F
:10DCA00008B1FCF7F9FE0023C4E90133236010BD7D
:10DCB00038B504460D4600680131FCF7FBFE10B193
:10DCC000C4E90005012038BD10B50368044623B13E
:10DCD00043688B4201D3012010BD2046FFF7E8FFC7
:10DCE0000028F9D0A368002BF5D122681370F2E761
:10DCF00038B5436804468B420D460ED3A368AB4249
:10DD000005D220680021EA1A184401F022F8002206
:10DD1000236801205A55A56003E0FFF7C9FF0028DA
:10DD2000ECD138BD37B50D46114601920446FFF7D8
:10DD3000CBFF019A28B92046FFF7AFFF204603B07A
:10DD400030BD2946A260206800F0DCFF0021226877
:10DD5000A368D154F2E7002313B50446C0E90033A9
:10DD60008360037341B108460191FBF755FC0199AB
:10DD700002462046FFF7D6FF204602B010BD38B558
:10DD8000054600680C4670B16A688B689A4208D3F1
:10DD9000096831B101F02BF8A368AB600023A360E0
:10DDA00038BDFCF779FE23682B6063686B60A3685D
:10DDB000AB600023C4E90033F1E7002310B504464B
:10DDC000C0E9003383600373FFF7D9FF204610BD1D
:10DDD000884210B5044605D00B682BB18A681946F5
:10DDE000FFF7A0FF204610BDFFF757FFFAE700231B
:10DDF00010B50446C0E9003383600373FFF7E8FF02
:10DE0000204610BD884210B5044601D0FFF7B7FF89
:10DE1000204610BDF8B5044616460F4609B9002045
:10DE2000F8BD8AB1856815442946FFF74DFF0028E3
:10DE3000F5D0A368206832461844394600F062FFE6
:10DE4000002223685A55A5600120E9E702460068D0
:10DE50000B4660B139B9916839B1007870471878CC
:10DE600040B140427047FBF7CDBB084670470029E0
:10DE7000F5D10846704708B50968FFF7E7FFC00FFE
:10DE800008BD000083688B4201D9006818B90023DF
:10DE90000248037070470844704700BF7CAF07100A
:10DEA00038B50C460546FBF7E9FC54B12088FCF771
:10DEB000E5FD286028B121462288BDE8384000F001
:10DEC00021BF38BD38B50C46B1F904300546838012
:10DED000D1F80630C0F806304B894381FBF7CEFC01
:10DEE000236813B12B600023236038BD07B50B46B0
:10DEF00000210246009101208C21FCF7A7FC03B011
:10DF00005DF804FB01460020FFF7F0BF0020FFF79B
:10DF1000F9BF0000F0B52B4D0B7D04468BB00846D1
:10DF2000AF1D002B36D00B681B79002B32D000229E
:10DF3000254B02A904300493CDE90222FCF778FCBA
:10DF4000DDF80E3000B2C5F80630BDF81230ADF87D
:10DF50000C00A88002992846BB80FFF7A1FF02A809
:10DF6000FBF78CFC00232360A380A37123814FF671
:10DF7000FF736381B5F904302046A380D5F80630DD
:10DF80002968C4F80630BB886381FFF789FF204603
:10DF90000BB0F0BD00262023CDE902360B4B02AAC0
:10DFA0000093322033460A49FCF77EFB4FF6F262BB
:10DFB000054B044802A9CDE903230296FFF782FF2F
:10DFC000CDE700BF80AF07100000FFFF64FD3F02F8
:10DFD00048F93F0202220020044B1A60044B054A14
:10DFE000C3E900009A60FCF7A5BB00BF8CAF071027
:10DFF00080AF07100000FFFF024B1A68024B1A6047
:10E00000704700BF04AE071090AF0710704741740F
:10E01000704708B5007CFCF79FFA20EAE07008BD65
:10E0200008B5007CFCF752FA20EAE07008BD08B59C
:10E03000007CFCF767FA40EAE07008BD08B5007C98
:10E04000FCF752FA40EAE07008BD007CFCF768BAC1
:10E0500037B5457C04462DB1207C03B0BDE8304087
:10E06000FCF726BA007C0191FCF776FA00280199AA
:10E07000F2DC284603B030BD10B504461421FBF78E
:10E08000F4FA204610BD000010B54FF47A73044630
:10E09000084611460022C4E90123044B2074236082
:10E0A00001236374FCF774FA204610BDB0FD3F02F3
:10E0B0000023007CFCF75EBA0022FFF7F9BF007C6A
:10E0C000FCF7E8B9007CFCF739BA41747047704737
:10E0D000704708B50021007CFCF7AEFA40EAE0701A
:10E0E00008BD08B50121007CFCF7A6FA40EAE07003
:10E0F00008BD08B5007CFCF791FA20EAE07008BD85
:10E1000008B5007CFCF77CFA20EAE07008BD13B586
:10E110000446007C0191FCF781FA0028019901DC9A
:10E12000607C20B1207CFCF795FA20EAE07002B018
:10E1300010BD007CFCF79CBA10B504461421FBF717
:10E1400094FA204610BD000010B54FF47A730446CF
:10E1500008460021C4E90113044B20742360012305
:10E1600011466374FCF722FA204610BDE4FD3F021D
:10E170000022007CFCF728BA007CFCF733BA10B50B
:10E1800004461422002100F0E4FD204610BD0000EA
:10E1900010B588B003A8FFF7F2FF0C4CD4E88F1F2E
:10E1A00011F001010FD120460191FCF7F3FC019918
:10E1B00048B103AA0648FFF7C7FF2046FCF7F8FC62
:10E1C000044800F090FD024808B010BD94AF07105D
:10E1D00098AF07105FE63F022822036802FB013177
:10E1E0000160704738B503681546DB6804469847F8
:10E1F000854205D060680028A8BF6FF0DB0038BDFD
:10E200000020FCE707B501228DF807100DF107018A
:10E21000FFF7E8FF00EAE07003B05DF804FB73B5B8
:10E220001E46182A76F100030446154600684FEA98
:10E23000411107D21143C9B2FFF7E4FF00EAE070D1
:10E2400002B070BDB2F5807F76F1000349B20AD208
:10E2500041F0180101F0F801FFF7D4FF0028EFDBCF
:10E260002068E9B2E8E7B2F5803F76F1000310D20A
:10E2700041F0190101F0F901FFF7C4FF0028DFDBCD
:10E2800002226DBAADF8005069462068FFF7AAFF78
:10E29000D4E75EB941F01A0101F0FA01FFF7B2FFCD
:10E2A0000028CDDB2DBA04220095EDE741F01B01DB
:10E2B00001F0FB01FFF7A6FF0028C1DB2DBA36BA3B
:10E2C0000822CDE90065DFE7191EBDBFCB43D2436D
:10E2D0000121002110B5FFF7A2FF00EAE07010BD98
:10E2E00038B50C468A68002303210546FFF797FFDF
:10E2F000002806DBA26821682868FFF773FF00EAA0
:10E30000E07038BD70B588B004AD0E4604460F49C4
:10E310002846FFF720FD002302930D4B314601A84C
:10E3200001930395FFF76EFC029B4BB12046074912
:10E33000FFF711FD2846FFF7A9FC204608B070BD85
:10E3400029462046FFF739FDF4E700BF6AFC3F028B
:10E3500054FD3F0210B504461030FBF7E9FC20469F
:10E36000FFF794FC204610BD08B5037C0A2B04D0AF
:10E37000FF3B58425841FCF757FD08BD10B5037CE0
:10E3800004460A2B88B02AD00022FF2B8DF81020DB
:10E3900001D1FCF7B9FB1B4A5BB252F8233004A948
:10E3A000024668469847237C0A2B1DD1694604A87B
:10E3B000FCF79AFD2046FFF7D7FF049A0368026036
:10E3C000059A049343684260069A059383688260C5
:10E3D00004A80693FCF797FD6846FCF794FD2046D9
:10E3E000FFF7C2FF08B010BD2046FBF7A1FC0A23CF
:10E3F000694620462374FCF777FD2046FFF7B4FFFB
:10E40000EAE700BFE4FB3F0208B5037C092B04D018
:10E41000FF3B58425841FCF707FD08BD28232DE972
:10E42000F0410F46D0E900645C43134BE4105C43B9
:10E4300086B0002C1CDD6510294601A80196FFF767
:10E44000CBFEDDF80480396802A8FFF784FC404663
:10E4500002A9FFF710FD804602A8FFF717FCB8F1EC
:10E46000000F03D0019E651B2836013D2C46E0E7D6
:10E47000304606B0BDE8F081CDCCCCCC38B50446F2
:10E480000D46FFF7B4FC05F1100104F11000FCF794
:10E49000CFFC204638BD38B504460D46FFF78DFC4D
:10E4A00005F1100104F11000FCF7C2FC204638BD54
:10E4B00008B5037C072B04D0FF3B58425841FCF7BA
:10E4C000B3FC08BD08B5037C082B04D0FF3B5842C1
:10E4D0005841FCF7A9FC08BD08B5037C0A2B04D001
:10E4E000FF3B58425841FCF79FFC08BD2DE9F34122
:10E4F0000B7C044608460A2B00F2BB80DFE803F0E1
:10E50000060F1C242D3237636A789500F6212068A7
:10E51000FFF778FE00EAE07002B0BDE8F081012B61
:10E5200004D0FF3B58425841FCF77EFC0378002B97
:10E5300014BFF521F421EAE7022BF2D10268D317C8
:10E540002046FFF7C1FEE5E7032BEAD1002302686E
:10E5500000212046FFF763FEDCE7042BE1D1D0E980
:10E560000023EDE7052BDCD1D0E90023F0E7062BF3
:10E57000D7D1D0E9006739463046FAF7F3FF0546B0
:10E58000FAF7FAFE32463B46D4F80080FAF7A2FFCB
:10E5900068B1FA214046FFF735FE0028BCDB0422B3
:10E5A0002DBA009569462068FFF71CFEB2E7FB21F3
:10E5B0004046FFF727FE0028AEDB3ABA33BACDE972
:10E5C00000230822EEE7FFF773FF01462046FFF71E
:10E5D00087FE9FE7FFF776FF00234268054602218A
:10E5E0002046FFF71CFE002896DBD5E90012DAE78B
:10E5F000FFF70AFF4268064604212046D317FFF7BB
:10E600000EFE002888DBD6E90056182303FB0656C9
:10E61000B54201D100207FE729462046FFF766FF7B
:10E62000002805F11805F3DA76E7FFF755FF426891
:10E63000064605212046D317FFF7F1FD0028FFF617
:10E640006BAFD6E90056282303FB0656B542E1D04E
:10E6500029462046FFF744FE0028FFF65DAF05F18E
:10E6600010012046FFF742FF002805F12805EDDAEA
:10E6700052E76FF0F9004FE707B50191014601A895
:10E68000FFF734FF00EAE07003B05DF804FB884256
:10E69000F8B504460D46164614D9904213D2A2F19D
:10E6A0002806751AA1F128072C44B74218D01CB1CE
:10E6B00031462046FFF7E2FE3046FFF74BFE283E8C
:10E6C000283CF2E70CD0B5420AD01CB129462046BE
:10E6D000FFF7D4FE2846FFF73DFE28352834F2E741
:10E6E000F8BDF8B50E1E054613DD282707FB06F01A
:10E6F000FCF7C4F9044658B1D5E9001207FB021231
:10E70000FFF7C5FF2868FCF7C7F901202C60AE6051
:10E71000F8BD0024F6E708B583688B4202DAFFF7FC
:10E72000E0FF08BD0120FCE708B54268836811449A
:10E7300099420ADD03EB430303EBD3735B10994269
:10E74000B8BF1946FFF7E7FF08BD0120FCE770B529
:10E75000044603688AB0CE1A68461146FFF78EFE5B
:10E76000D4E90113994210DA2821236862689D19BF
:10E7700001FB023205F128002946FFF788FFB5B9F1
:10E78000636801250133636006E020460131FFF72D
:10E79000A8FF05460028E7D16846FFF7DBFD2368A0
:10E7A00055B92821606801FB00300AB070BD694688
:10E7B0002846FFF763FEE3E79819F6E770B5A6B0C1
:10E7C00016460191FFF7DAFD01210546FFF7ACFF80
:10E7D000044600283AD0314606A8FCF729FB06A9D2
:10E7E0000CA8FCF725FB01A92846FFF717FED5E981
:10E7F0000032282101FB02339842044629D00199B6
:10E800001CA8FFF7A8FA21461CA8FFF734FB064610
:10E810001CA8FFF73BFAE6B90CA91CA8FCF708FBFB
:10E8200004F110001CA9FDF735FF1CA8FBF780FAC6
:10E830000CA8FBF77DFAD5E90003282202FB0300B0
:10E84000241A06A818BF0124FBF772FA204626B046
:10E8500070BD019902A8FFF77EFA02A912A8FFF77E
:10E86000ACFA0CA916A8FCF7E3FA12A91CA8FFF74A
:10E8700012FE21461CAA2846FFF769FF04461CA881
:10E88000FFF768FD16A8FBF753FA12A8FFF7FEF989
:10E8900002A8FFF7FBF9CBE7002240681146FCF71E
:10E8A00053B8002240681146FCF786B80022406841
:10E8B0001146FCF79DB800224068FCF78BB8002297
:10E8C000406881F00101FCF769B8002340681A46EE
:10E8D0001946FCF755B8002340681A461946FCF75C
:10E8E00041B8002240681146FCF712B8002202210C
:10E8F0004068FCF71BB8002340681A46FBF7FABFD4
:10E900000522024B5A60024A1A607047ACAF0710EA
:10E9100018FE3F02014B1860704700BF08AE071099
:10E9200008B50D4B43B1FFF733FC03681B699847EB
:10E93000002801DD00E000BF084B43B100F072F990
:10E9400003681B699847002801DD00E000BF044B05
:10E950000BB100F0ADF908BD0000000000000000A0
:10E960000000000008B5FFF7DBFFFBF723FD014BBC
:10E97000186008BDBCAF07100548064A08B5121A52
:10E98000054900F0BFF9054B054A1A6008BD00BFF4
:10E9900000B4071004B40710DCFA5F0800B40710D5
:10E9A0001E1C279A002307B51A466FF077010093C3
:10E9B000FBF706FF03B05DF804FB000007B54388D2
:10E9C0000A2B08D0502B0BD1094B1B684BB103B05D
:10E9D0005DF804EB1847FFF7E5FF03B05DF804FBB3
:10E9E00000231A466FF077010093FBF7E9FEF4E786
:10E9F000B8AF0710002110B51148FCF7BDF8114B56
:10EA00001A68114B9A420CBF012200220F4B1A7058
:10EA100001D0FFF7B1FFFBF7B1FC044600F0A2F90B
:10EA20000B4B13B1204600E000BF00210848FBF764
:10EA300053FFBDE8104000210648FBF7B3BE00BFFE
:10EA4000A5EE3F0200B407101E1C279AB4AF0710B2
:10EA5000000000004DEF3F0209B504480068044B78
:10EA600003441B68D3F88030029309BDF8AD07104A
:10EA70004400000009B504480068044B03441B68C7
:10EA8000D3F88430029309BDF8AD071044000000AC
:10EA900009B504480068044B03441B68D3F8903060
:10EAA000029309BDF8AD07104400000009B5044801
:10EAB0000068044B03441B68D3F8A430029309BDDB
:10EAC000F8AD07104400000009B504480068044B85
:10EAD00003441B68D3F8A830029309BDF8AD0710B2
